:020000040800F2
:1000000000280020BD1B00087D1800088318000888
:10001000891800088F1800089518000800000000D3
:100020000000000000000000000000009B18000815
:10003000A718000800000000B3180008BF18000847
:10004000051C0008051C0008051C0008051C00080C
:10005000051C0008051C0008051C0008051C0008FC
:10006000051C0008051C0008051C0008051C0008EC
:10007000051C0008051C0008051C0008051C0008DC
:10008000051C0008051C0008051C0008051C0008CC
:10009000051C0008051C0008051C0008051C0008BC
:1000A000051C0008051C0008051C0008051C0008AC
:1000B000CD180008051C000800000000051C000801
:1000C000051C00080000000000000000051C0008DE
:1000D00000000000051C0008051C000800000000CE
:1000E000051C0008051C0008051C00080000000095
:1000F0000000000000000000000000000000000000
:0C01000000000000000000005FF808F1A3
:10010C0010B5054C237833B9044B13B10448AFF345
:10011C0000800123237010BD4C0000200000000063
:10012C005C32000808B5034B1BB103490348AFF31D
:10013C00008008BD00000000500000205C32000868
:10014C0080B483B000AF78607B68002B0CD1514B2E
:10015C00DB68504A43F0FF03D3604E4BDA684D49DD
:10016C004FF640731340CB607B68012B0CD1494B8D
:10017C00DB68484A43F0FF03D360464BDA684549D5
:10018C004FF679731340CB607B68022B0CD1414B3B
:10019C00DB68404A43F0FF03D3603E4BDA683D49CD
:1001AC004FF624731340CB607B68032B0CD1394B77
:1001BC00DB68384A43F0FF03D360364BDA683549C5
:1001CC004FF630731340CB607B68042B0CD1314B52
:1001DC00DB68304A43F0FF03D3602E4BDA682D49BD
:1001EC004FF619731340CB607B68052B0CD1294B50
:1001FC00DB68284A43F0FF03D360264BDA682549B5
:10020C004FF612731340CB607B68062B0CD1214B3D
:10021C00DB68204A43F0FF03D3601E4BDA681D49AC
:10022C004FF602731340CB607B68072B0CD1194B34
:10023C00DB68184A43F0FF03D360164BDA681549A4
:10024C004FF678731340CB607B68082B0CD1114BA5
:10025C00DB68104A43F0FF03D3600E4BDA680D499C
:10026C004FF680731340CB607B68092B0CD1094B84
:10027C00DB68084A43F0FF03D360064BDA68054994
:10028C004FF690731340CB6000BF0C37BD4680BC5B
:10029C00704700BF000C014080B483B000AF7860A1
:1002AC007B68002B0CD1514BDB68504A43F47F43E5
:1002BC00D3604E4BDA684D4944F2FF031340CB60D8
:1002CC007B68012B0CD1494BDB68484A43F47F43D4
:1002DC00D360464BDA68454947F6FF131340CB60B1
:1002EC007B68022B0CD1414BDB68404A43F47F43C3
:1002FC00D3603E4BDA683D4942F2FF431340CB607A
:10030C007B68032B0CD1394BDB68384A43F47F43B1
:10031C00D360364BDA68354943F2FF031340CB60A8
:10032C007B68042B0CD1314BDB68304A43F47F43A0
:10033C00D3602E4BDA682D4941F6FF131340CB6086
:10034C007B68052B0CD1294BDB68284A43F47F438F
:10035C00D360264BDA68254941F2FF231340CB606A
:10036C007B68062B0CD1214BDB68204A43F47F437E
:10037C00D3601E4BDA681D4940F2FF231340CB605B
:10038C007B68072B0CD1194BDB68184A43F47F436D
:10039C00D360164BDA68154947F6FF031340CB6060
:1003AC007B68082B0CD1114BDB68104A43F47F435C
:1003BC00D3600E4BDA680D4948F2FF031340CB6053
:1003CC007B68092B0CD1094BDB68084A43F47F434B
:1003DC00D360064BDA68054949F2FF031340CB6042
:1003EC0000BF0C37BD4680BC704700BF000C0140FD
:1003FC0080B500AF01F082FB0346002B6FD00A20C2
:10040C0001F06EFA374B1B68002B02D0012B2ED05B
:10041C005BE0354B4FF6FF72DA60344B1B681A68A1
:10042C00334B83FB02139910D317C91A0B469B004D
:10043C000B445B00D11A0846FFF782FE2B4B1B685E
:10044C001B682B4A82FB03129210DB17D31A184637
:10045C00FFF722FF00224FF48071264801F0CFFEF7
:10046C0001224FF40071234801F0C9FE2DE01E4B10
:10047C004FF6FF72DA60204B1B681A681C4B83FB2B
:10048C0002139910D317C91A0B469B000B445B003F
:10049C00D11A0846FFF754FE174B1B681B68144A09
:1004AC0082FB03129210DB17D31A1846FFF7F4FEE7
:1004BC0001224FF480710F4801F0A1FE00224FF48D
:1004CC0000710C4801F09BFE00BF064B1B6801330A
:1004DC00002B03F00103B8BF5B42024A136000BF5C
:1004EC0080BD00BF68000020000C0140C40000204B
:1004FC006766666600080140C000002080B500AF4A
:10050C0000220421074801F07AFE0122102105483F
:10051C0001F075FE01220821024801F070FE00BFB7
:10052C0080BD00BF0008014080B500AF012204214E
:10053C00074801F064FE01221021054801F05FFE1E
:10054C0000220821024801F05AFE00BF80BD00BF06
:10055C000008014080B500AF01220421074801F0DA
:10056C004EFE00221021054801F049FE012208210F
:10057C00024801F044FE00BF80BD00BF00080140EE
:10058C0080B500AF00222021074801F038FE01227F
:10059C008021054801F033FE01224021024801F080
:1005AC002EFE00BF80BD00BF0008014080B500AF2B
:1005BC0001222021074801F022FE0122802105485A
:1005CC0001F01DFE00224021024801F018FE00BF80
:1005DC0080BD00BF0008014080B500AF0122202182
:1005EC00074801F00CFE00228021054801F007FEAF
:1005FC0001224021024801F002FE00BF80BD00BF75
:10060C000008014080B500AF0421024801F00FFE44
:10061C0000BF80BD0008014080B500AF0821024832
:10062C0001F005FE00BF80BD0008014080B500AFA1
:10063C001021024801F0FBFD00BF80BD0008014005
:10064C0080B500AF2021024801F0F1FD00BF80BD54
:10065C000008014080B500AF4021024801F0E7FDE1
:10066C0000BF80BD0008014080B500AF802102486A
:10067C0001F0DDFD00BF80BD0008014080B500AF7A
:10068C00012204210E4801F0BAFD012210210C4870
:10069C0001F0B5FD01220821094801F0B0FD01224D
:1006AC002021074801F0ABFD01228021044801F014
:1006BC00A6FD01224021024801F0A1FD00BF80BD32
:1006CC000008014080B500AFAB4B1B68013B112B00
:1006DC0000F2D88101A252F823F000BF31070008C4
:1006EC0075070008D508000825080008910A0008BD
:1006FC00910A0008910A0008910A0008910A000862
:10070C00910A0008910A0008910A0008910A000851
:10071C00910A0008910A0008910A0008910A000841
:10072C00BD090008FFF7EAFE934B02221A60924BB8
:10073C001B68924A1360924B1B68184601F0E4F850
:10074C00642001F009F98E4B1B688E4A82FB031260
:10075C005211DB17D31A8C4A13608C4B8A4A1A60DD
:10076C008B4B01221A6096E1FFF7C8FE884B0122E1
:10077C001A6001F0F9F90346002B07D0642001F050
:10078C00EBF8814B1B68013B7F4A136001F0C8F901
:10079C000346012B14D17F4B1B68184601F0B4F8AB
:1007AC00754B04221A60642001F0D6F8794B1B6853
:1007BC00744A82FB03125211DB17D31A724A13606C
:1007CC00002000F0C7FE0346002B00F05D81FFF710
:1007DC0055FF694B1B68694A13606F4B1B686F4A66
:1007EC001360654B12221A606B4B12221A606C4B11
:1007FC000C221A6001F0D8F801F0E6F801F0F4F8D8
:10080C0001F002F9642001F07FF8604B654A1A6030
:10081C00654B5F4A1A6037E15D4B01221A60FFF7A6
:10082C0099FE01F0A1F90346002B07D0642001F0DA
:10083C0093F8554B1B68013B534A136001F070F958
:10084C000346012B14D1594B1B68184601F05CF878
:10085C00494B03221A60642001F07EF8534B1B684D
:10086C00484A82FB03125211DB17D31A464A136013
:10087C00002000F06FFE0346002B00F00781FFF70D
:10088C00FDFE3D4B1B683D4A1360434B1B68434ABE
:10089C001360394B12221A603F4B12221A60404BE4
:1008AC000C221A6001F080F801F08EF801F09CF82F
:1008BC0001F0AAF8642001F027F8344B394A1A6089
:1008CC00394B334A1A60E1E0314B01221A60FFF7D1
:1008DC002BFE01F049F90346002B07D0642001F0F0
:1008EC003BF8294B1B68013B274A136001F018F9B0
:1008FC000346012B14D1224B1B68184601F004F857
:10090C001D4B02221A60642001F026F81C4B1B6858
:10091C001C4A82FB03125211DB17D31A1A4A1360BA
:10092C00002000F017FE0346002B00F0B180FFF70B
:10093C00A5FE114B1B68114A1360174B1B68174A15
:10094C0013600D4B12221A60134B12221A60144BB7
:10095C000C221A6001F028F801F036F801F044F886
:10096C0001F052F8642000F0CFFF084B0D4A1A60DA
:10097C000D4B074A1A608BE0000000200400002099
:10098C00140000201F85EB516C000020C4000020D7
:10099C00300000201C000020080000200C0000206B
:1009AC00100000202C000020C000002018000020A7
:1009BC003A4B1B68022B1ED1394B1B68002B1AD0EB
:1009CC00FFF75CFE354B1B68364A1360344B002234
:1009DC001A60642000F0C0FF334B1B68184600F00F
:1009EC0093FF314B1B68314A82FB03125211DB1708
:1009FC00D31A2F4A1360294B1B68042B1ED1284B8A
:100A0C001B68002B1AD0264B00221A60234B1B6844
:100A1C00244A1360FFF732FE642000F09DFF254B43
:100A2C001B68184600F070FF224B1B681F4A82FBA4
:100A3C0003125211DB17D31A1D4A1360174B1B6894
:100A4C00032B27D1164B1B68002B23D0144B0022F1
:100A5C001A60124B1B68134A1360FFF70FFE6420D9
:100A6C0000F07AFF144B1B68184600F04DFF124B38
:100A7C001B680E4A82FB03125211DB17D31A0C4A65
:100A8C00136007E000BF06E000BF04E000BF02E017
:100A9C0000BF00E000BF00BF80BD00BF040000200D
:100AAC007400002000000020140000201F85EB5172
:100ABC006C0000201C0000201800002080B500AF46
:100ACC00AB4B1B68013B112B00F2D88101A252F8F1
:100ADC0023F000BF290B00086D0B0008CD0C00089B
:100AEC001D0C0008890E0008890E0008890E0008EC
:100AFC00890E0008890E0008890E0008890E00086E
:100B0C00890E0008890E0008890E0008890E00085D
:100B1C00890E0008890E0008B50D0008FFF75CFD72
:100B2C00934B04221A60924B1B68924A1360924BAF
:100B3C001B68184600F0FCFE642000F021FF8E4B71
:100B4C001B688E4A82FB03125211DB17D31A8C4A94
:100B5C0013608C4B8A4A1A608B4B01221A6096E107
:100B6C00FFF70EFD884B01221A6001F00FF80346C7
:100B7C00002B07D0642000F003FF814B1B68013B66
:100B8C007F4A136000F0DEFF0346012B14D17A4B31
:100B9C001B68184600F0CCFE754B04221A606420CA
:100BAC0000F0EEFE744B1B68744A82FB0312521168
:100BBC00DB17D31A724A1360002000F0CBFC0346FB
:100BCC00002B00F05D81FFF759FD704B1B68704ADC
:100BDC001360674B1B68674A13606C4B12221A60D8
:100BEC00634B12221A606B4B0C221A6000F0DCFE75
:100BFC0000F0EAFE00F0F8FE00F006FF642000F0C2
:100C0C0083FE654B654A1A605E4B5F4A1A6037E19A
:100C1C005D4B01221A60FFF7DFFC00F0B7FF0346C3
:100C2C00002B07D0642000F0ABFE554B1B68013B3A
:100C3C00534A136000F086FF0346012B14D1584B26
:100C4C001B68184600F074FE494B03221A6064209E
:100C5C0000F096FE524B1B68484A82FB031252115D
:100C6C00DB17D31A464A1360002000F073FC0346CE
:100C7C00002B00F00781FFF701FD444B1B68444A31
:100C8C0013603B4B1B683B4A1360404B12221A60AB
:100C9C00374B12221A603F4B0C221A6000F084FE74
:100CAC0000F092FE00F0A0FE00F0AEFE642000F01A
:100CBC002BFE394B394A1A60324B334A1A60E1E049
:100CCC00314B01221A60FFF771FC00F05FFF034605
:100CDC00002B07D0642000F053FE294B1B68013B0E
:100CEC00274A136000F02EFF0346012B14D12D4B25
:100CFC001B68184600F01CFE1D4B02221A60642073
:100D0C0000F03EFE274B1B681C4A82FB031252115B
:100D1C00DB17D31A1A4A1360002000F01BFC0346A1
:100D2C00002B00F0B180FFF7A9FC184B1B68184A88
:100D3C0013600F4B1B680F4A1360144B12221A607E
:100D4C000B4B12221A60134B0C221A6000F02CFE73
:100D5C0000F03AFE00F048FE00F056FE642000F071
:100D6C00D3FD0D4B0D4A1A60064B074A1A608BE0F7
:100D7C00080000200C000020280000201F85EB51EB
:100D8C0070000020C0000020300000200000002077
:100D9C000400002010000020C40000202C000020C3
:100DAC0024000020200000203A4B1B68022B1ED18F
:100DBC00394B1B68002B1AD0FFF760FC354B1B68B6
:100DCC00364A1360344B00221A60642000F0D8FDC0
:100DDC00334B1B68184600F0ABFD314B1B68314A96
:100DEC0082FB03125211DB17D31A2F4A1360294BC3
:100DFC001B68042B1ED1284B1B68002B1AD0264BCA
:100E0C0000221A60234B1B68244A1360FFF736FC40
:100E1C00642000F0B5FD254B1B68184600F088FDDA
:100E2C00224B1B681F4A82FB03125211DB17D31A89
:100E3C001D4A1360174B1B68032B27D1164B1B68DD
:100E4C00002B23D0144B00221A60124B1B68134A40
:100E5C001360FFF713FC642000F092FD144B1B6829
:100E6C00184600F065FD124B1B680E4A82FB0312FC
:100E7C005211DB17D31A0C4A136007E000BF06E0CF
:100E8C0000BF04E000BF02E000BF00E000BF00BFF5
:100E9C0080BD00BF0C00002078000020080000205E
:100EAC00200000201F85EB5170000020280000203E
:100EBC002400002080B500AFAB4B1B680C3B062B0D
:100ECC0000F2188201A252F823F000BFF50E0008C0
:100EDC00950F000835100008D51000089511000872
:100EEC003312000801130008A04B02221A6000F014
:100EFC0017FE0346002B06D0642000F005FDFFF71B
:100F0C0081FBFFF79DFB022000F024FB0346002B26
:100F1C000ED0FFF7B3FB964B1B68642202FB03F366
:100F2C00944A1360924B01221A608F4B0D221A6067
:100F3C00012000F00FFB0346002B15D08C4B1B68D7
:100F4C005A1C8D4B83FB02135911D317CB1A6421F6
:100F5C0001FB03F3D31A864A1360854B1B68002BE5
:100F6C0002D1834B01221A60002000F0F3FA0346F1
:100F7C00002B00F0C181FFF781FB7D4B01221A6031
:100F8C00794B0D221A60B7E1784B03221A6000F0FE
:100F9C00C7FD0346002B06D0642000F0B5FCFFF71C
:100FAC003BFBFFF757FB022000F0D4FA0346002B63
:100FBC000ED0FFF763FB6E4B1B68642202FB03F33E
:100FCC006E4A13606A4B01221A60674B0E221A603C
:100FDC00012000F0BFFA0346002B15D0644B1B68B0
:100FEC005A1C654B83FB02135911D317CB1A64217E
:100FFC0001FB03F3D31A5E4A13605D4B1B68002B95
:10100C0002D15B4B01221A60002000F0A3FA0346C8
:10101C00002B00F07381FFF731FB554B01221A6056
:10102C00514B0E221A6069E1504B04221A6000F0F9
:10103C0077FD0346002B06D0642000F065FCFFF71B
:10104C00F5FAFFF711FB022000F084FA0346002B9F
:10105C000ED0FFF713FB464B1B68642202FB03F315
:10106C00474A1360424B01221A603F4B0F221A6011
:10107C00012000F06FFA0346002B15D03C4B1B6887
:10108C005A1C3D4B83FB02135911D317CB1A642105
:10109C0001FB03F3D31A364A1360354B1B68002B44
:1010AC0002D1334B01221A60002000F053FA0346A0
:1010BC00002B00F02581FFF7E1FA2D4B01221A607D
:1010CC00294B0F221A601BE1284B05221A6000F0F5
:1010DC0027FD0346002B06D0642000F015FCFFF71B
:1010EC0091FAFFF7ADFA022000F034FA0346002B18
:1010FC000ED0FFF7C3FA1E4B1B68642202FB03F3EE
:10110C00204A13601A4B01221A60174B10221A60E6
:10111C00012000F01FFA0346002B15D0144B1B685E
:10112C005A1C154B83FB02135911D317CB1A64218C
:10113C0001FB03F3D31A0E4A13600D4B1B68002BF3
:10114C0002D10B4B01221A60002000F003FA034677
:10115C00002B00F0D780FFF791FA054B01221A60A3
:10116C00014B10221A60CDE010000020300000204E
:10117C002C000020140000201F85EB5118000020CB
:10118C001C00002020000020624B06221A6000F098
:10119C00C7FC0346002B06D0642000F0B5FBFFF71C
:1011AC003BFAFFF757FA022000F0D4F90346002B64
:1011BC000ED0FFF763FA584B1B68642202FB03F353
:1011CC00564A1360544B01221A60554B11221A6077
:1011DC00012000F0BFF90346002B15D04E4B1B68C5
:1011EC005A1C504B83FB02135911D317CB1A642191
:1011FC0001FB03F3D31A484A1360474B1B68002BBF
:10120C0002D1454B01221A60002000F0A3F90346DD
:10121C00002B79D0FFF732FA3F4B01221A60404B7A
:10122C0011221A6070E03B4B07221A6000F078FC28
:10123C000346002B06D0642000F066FBFFF7F6F99E
:10124C00FFF712FA022000F085F90346002B1AD0A2
:10125C00FFF714FA304B1B68642202FB03F3324A8B
:10126C0013602D4B01221A60304B01221A60304B57
:10127C0001221A602A4B12221A602E4B2E4A1A6037
:10128C002E4B2F4A1A60012000F064F90346002B04
:10129C0015D0214B1B685A1C224B83FB021359118E
:1012AC00D317CB1A642101FB03F3D31A1A4A136028
:1012BC00194B1B68002B02D1174B01221A6000201E
:1012CC0000F048F90346002B20D0134B01221A6082
:1012DC00FFF7D4F9154B01221A60154B01221A6045
:1012EC000F4B12221A60134B134A1A60134B144AF9
:1012FC001A600BE000BF0AE000BF08E000BF06E088
:10130C0000BF04E000BF02E000BF00E000BF00BF70
:10131C0080BD00BF300000202C00002024000020E5
:10132C00100000201F85EB512800002074000020C5
:10133C0078000020C40000206C000020C0000020B9
:10134C007000002080B500AF00F038F8194B4FF654
:10135C00FF72DA600A2000F0C3FA01224FF48071A8
:10136C00154800F04CFF01224FF40071124800F0B8
:10137C0046FF00220421104800F041FF0122082101
:10138C000D4800F03CFF012210210B4800F037FF04
:10139C0001222021084800F032FF0122402106489A
:1013AC0000F02DFF00228021034800F028FF00BF31
:1013BC0080BD00BF000C01400008014080B483B028
:1013CC0000AF0023FB7120E0FB79144A0121D154BA
:1013DC00FB79134A0121D154FB79124A0121D154D2
:1013EC00FB79114A0121D154FB79104A002142F8B2
:1013FC002310FB790E4A0021D154FB790D4A0021B0
:10140C0022F81310FB790133FB71FB79022BDBD92A
:10141C0000BF00BF0C37BD4680BC70477C0000206D
:10142C00800000208400002088000020C8000020DC
:10143C008C0000209000002090B583B000AF0023FA
:10144C00FB716BE0FA79FB793849895C384AD154E5
:10145C00FA79FB793749895C344AD154FB79364A9D
:10146C0032F81330FC791946344800F0B1FE0346CB
:10147C001A46304B1A55FB792C4AD25CFB792D4914
:10148C00CB5C9A4247D1FB79284AD25CFB7928493C
:10149C00CB5C9A423FD1FB79254AD25CFB79284937
:1014AC00CB5C9A4223D0FA79FB792149895C244A96
:1014BC00D154FB79224AD35C002B09D1214B4FF438
:1014CC00FA721A60FB79204A012142F8231022E0BB
:1014DC001C4B1B68013B1B4A1360FB791B4A002108
:1014EC0022F81310FB79164A0121D15413E0FB7931
:1014FC00164A32F81330632B09D8FB79134A32F8A9
:10150C001320013291B2114A22F8131003E0FB7937
:10151C000F4A0121D154FB790133FB71FB79022B6A
:10152C0090D900BF00BF0C37BD4690BD8000002095
:10153C00840000207C0000203800002000080140BE
:10154C008800002034000020C800002090000020FB
:10155C008C00002080B483B000AF0346FB71FB7994
:10156C00022B01D900230DE0FB79094A52F82330F4
:10157C00012B06D1FB79064A002142F823100123E6
:10158C0000E0002318460C37BD4680BC704700BFF6
:10159C00C800002080B500AF00F030FB00F014F85C
:1015AC0000F04EF800F098F8064801F091FAFFF7B9
:1015BC00C9FEFFF787F8FFF781FAFFF77BFCFEF710
:1015CC0017FFF6E7D400002080B590B000AF07F10C
:1015DC00180328220021184601F032FE3B1D002280
:1015EC001A605A609A60DA601A610223BB610123A7
:1015FC00BB621023FB6200237B6307F118031846C0
:10160C0000F02EFE0346002B01D000F0D5F80F237E
:10161C007B600023BB600023FB6000233B61002345
:10162C007B613B1D0021184601F09AF80346002B04
:10163C0001D000F0C1F800BF4037BD4680BD0000AE
:10164C0080B586B000AF07F1080300221A605A601B
:10165C009A60DA603B4600221A605A601D4B4FF0CC
:10166C0080421A601B4B41F63F725A60194B0022A4
:10167C009A60184B0A22DA60164B00221A61154B3D
:10168C0000229A61134801F0D3F90346002B01D0D4
:10169C0000F092F84FF48053BB6007F10803194631
:1016AC000C4801F069FB0346002B01D000F084F8D4
:1016BC0000233B6000237B603B461946054801F044
:1016CC0031FD0346002B01D000F076F800BF18372F
:1016DC00BD4680BDD400002080B586B000AF07F1B8
:1016EC00080300221A605A609A60DA60294B9B69E1
:1016FC00284A43F004039361264B9B6903F00403CF
:10170C007B607B68234B9B69224A43F008039361FF
:10171C00204B9B6903F008033B603B6800224FF4AD
:10172C007F711D4800F06BFD002247F67F711B484E
:10173C0000F065FD4FF47F73BB600123FB60002359
:10174C003B6102237B6107F108031946124800F044
:10175C00C5FB47F67F73BB600123FB6000233B6135
:10176C0002237B6107F1080319460C4800F0B6FB15
:10177C004FF46043BB600023FB6001233B6107F126
:10178C0008031946044800F0A9FB00BF1837BD46F2
:10179C0080BD00BF0010024000080140000C014059
:1017AC0080B582B000AF786000F03EF9FFF744FEE0
:1017BC0000BF0837BD4680BD80B400AF72B600BF15
:1017CC00FEE7000080B485B000AF154B9B69144A4E
:1017DC0043F001039361124B9B6903F00103BB605F
:1017EC00BB680F4BDB690E4A43F08053D3610C4B43
:1017FC00DB6903F080537B607B680A4B5B68FB60A2
:10180C00FB6823F0E063FB60FB6843F08063FB60E4
:10181C00044AFB68536000BF1437BD4680BC704758
:10182C00001002400000014080B584B000AF786029
:10183C007B681B68B3F1804F13D10C4BDB690B4AEF
:10184C0043F00103D361094BDB6903F00103FB6037
:10185C00FB68002200211C2000F009FB1C2000F07A
:10186C0022FB00BF1037BD4680BD00BF00100240F8
:10187C0080B400AFFEE780B400AFFEE780B400AFE9
:10188C00FEE780B400AFFEE780B400AFFEE780B4A3
:10189C0000AF00BFBD4680BC704780B400AF00BF36
:1018AC00BD4680BC704780B400AF00BFBD4680BC55
:1018BC00704780B500AF00F0E7F900BF80BD0000B5
:1018CC0080B500AF024801F04FF900BF80BD00BFEA
:1018DC00D400002080B400AF00BFBD4680BC704770
:1018EC0080B483B000AF7860054A7B681360054B09
:1018FC0000221A6000BF0C37BD4680BC704700BF89
:10190C0098000020AC00002080B483B000AF786059
:10191C00054A7B681360054B00221A6000BF0C3728
:10192C00BD4680BC704700BF9C000020B00000206A
:10193C0080B483B000AF7860054A7B681360054BB8
:10194C0000221A6000BF0C37BD4680BC704700BF38
:10195C00A0000020B400002080B483B000AF7860F9
:10196C00054A7B681360054B00221A6000BF0C37D8
:10197C00BD4680BC704700BFA4000020B80000200A
:10198C0080B483B000AF7860054A7B681360054B68
:10199C0000221A6000BF0C37BD4680BC704700BFE8
:1019AC00A8000020BC00002080B400AF044B002233
:1019BC001A60044B00221A6000BFBD4680BC704701
:1019CC009C000020B000002080B400AF044B00222B
:1019DC001A60044B00221A6000BFBD4680BC7047E1
:1019EC00A0000020B400002080B400AF044B002203
:1019FC001A60044B00221A6000BFBD4680BC7047C1
:101A0C00A4000020B800002080B400AF044B0022DA
:101A1C001A60044B00221A6000BFBD4680BC7047A0
:101A2C00A8000020BC00002080B400AF294B1B682C
:101A3C00002B0BDD274B1B68013B264A1360254B03
:101A4C001B68002B02DC244B01221A60234B1B6801
:101A5C00002B0BDD214B1B68013B204A13601F4BF5
:101A6C001B68002B02DC1E4B01221A601D4B1B68ED
:101A7C00002B0BDD1B4B1B68013B1A4A1360194BE7
:101A8C001B68002B02DC184B01221A60174B1B68D9
:101A9C00002B0BDD154B1B68013B144A1360134BD9
:101AAC001B68002B02DC124B01221A60114B1B68C5
:101ABC00002B0BDD0F4B1B68013B0E4A13600D4BCB
:101ACC001B68002B02D10C4B01221A6000BFBD46D3
:101ADC0080BC704798000020AC0000209C000020C7
:101AEC00B0000020A0000020B4000020A4000020C2
:101AFC00B8000020A8000020BC00002080B400AF7B
:101B0C00064B1B68012B04D1044B00221A600123E5
:101B1C0000E000231846BD4680BC7047AC00002096
:101B2C0080B400AF064B1B68012B04D1044B002280
:101B3C001A60012300E000231846BD4680BC7047A4
:101B4C00B000002080B400AF064B1B68012B04D101
:101B5C00044B00221A60012300E000231846BD4606
:101B6C0080BC7047B400002080B400AF064B1B68EB
:101B7C00012B04D1044B00221A60012300E0002346
:101B8C001846BD4680BC7047B800002080B400AF3A
:101B9C00064B1B68012B04D1044B00221A60012355
:101BAC0000E000231846BD4680BC7047BC000020F6
:101BBC000C480D490D4A002302E0D458C45004339C
:101BCC00C4188C42F9D30A4A0A4C002301E0136072
:101BDC000432A242FBD3FFF77DFE01F00DFBFFF7B1
:101BEC00D9FC7047000000204C0000209C320008FB
:101BFC004C00002020010020FEE7000080B500AF63
:101C0C00084B1B68074A43F010031360032000F0D5
:101C1C0023F90F2000F008F8FFF7D4FD0023184635
:101C2C0080BD00BF0020024080B582B000AF78605C
:101C3C00124B1A68124B1B7819464FF47A73B3FB8C
:101C4C00F1F3B2FBF3F3184600F03BF90346002B1B
:101C5C0001D001230EE07B680F2B0AD80022796893
:101C6C004FF0FF3000F003F9064A7B681360002345
:101C7C0000E0012318460837BD4680BD4000002017
:101C8C00480000204400002080B400AF054B1B78B6
:101C9C001A46054B1B681344034A136000BFBD462C
:101CAC0080BC7047480000201C01002080B400AFAD
:101CBC00024B1B681846BD4680BC70471C010020B7
:101CCC0080B485B000AF78607B6803F00703FB60DD
:101CDC000C4BDB68BB60BA684FF6FF031340BB606C
:101CEC00FB681A02BB68134343F0BF6343F4003331
:101CFC00BB60044ABB68D36000BF1437BD4680BCD0
:101D0C00704700BF00ED00E080B400AF044BDB680F
:101D1C001B0A03F007031846BD4680BC704700BF82
:101D2C0000ED00E080B483B000AF0346FB7197F97F
:101D3C000730002B0BDBFB7903F01F02064997F9E8
:101D4C0007305B09012000FA02F241F8232000BFA2
:101D5C000C37BD4680BC704700E100E080B483B016
:101D6C0000AF03463960FB7197F90730002B0ADB93
:101D7C003B68DAB20C4997F907301201D2B20B4426
:101D8C0083F800230AE03B68DAB20849FB7903F0D8
:101D9C000F03043B1201D2B20B441A7600BF0C376E
:101DAC00BD4680BC704700BF00E100E000ED00E0E4
:101DBC0080B489B000AFF860B9607A60FB6803F05A
:101DCC000703FB61FB69C3F10703042B28BF042342
:101DDC00BB61FB690433062B02D9FB69033B00E0B2
:101DEC0000237B614FF0FF32BB6902FA03F3DA4345
:101DFC00BB681A407B699A404FF0FF317B6901FA4E
:101E0C0003F3D9437B680B40134318462437BD4674
:101E1C0080BC704780B582B000AF78607B68013BB6
:101E2C00B3F1807F01D301230FE00A4A7B68013BA9
:101E3C0053600F214FF0FF30FFF790FF054B00224E
:101E4C009A60044B07221A60002318460837BD46D7
:101E5C0080BD00BF10E000E080B582B000AF7860BC
:101E6C007868FFF72DFF00BF0837BD4680BD80B5F1
:101E7C0086B000AF0346B9607A60FB7300237B61C8
:101E8C00FFF742FF78617A68B9687869FFF790FFCD
:101E9C00024697F90F3011461846FFF75FFF00BF57
:101EAC001837BD4680BD80B582B000AF0346FB71CC
:101EBC0097F907301846FFF735FF00BF0837BD46C6
:101ECC0080BD80B582B000AF78607868FFF7A2FF64
:101EDC00034618460837BD4680BD000080B48BB061
:101EEC0000AF7860396000237B6200233B6248E1DD
:101EFC0001227B6A02FA03F3FB613B681B68FA69F7
:101F0C001340BB61BA69FB699A4240F037813B6868
:101F1C005B68A34A93425ED0A14A934275D8A14A0A
:101F2C00934258D09F4A93426FD89F4A934252D0C3
:101F3C009D4A934269D89D4A93424CD09B4A934206
:101F4C0063D89B4A934246D0994A93425DD8122B50
:101F5C002AD8122B59D801A252F823F0E31F0008FB
:101F6C00BD1F0008CF1F0008112000081720000813
:101F7C001720000817200008172000081720000859
:101F8C001720000817200008172000081720000849
:101F9C001720000817200008172000081720000839
:101FAC00C51F0008D91F0008824A934213D02CE0A9
:101FBC003B68DB683B6229E03B68DB6804333B62CF
:101FCC0024E03B68DB6808333B621FE03B68DB685E
:101FDC000C333B621AE03B689B68002B02D1042354
:101FEC003B6213E03B689B68012B05D108233B62E5
:101FFC007B68FA691A6109E008233B627B68FA691D
:10200C005A6103E000233B6200E000BFBB69FF2B79
:10201C0001D87B6801E07B6804337B61BB69FF2BD3
:10202C0002D87B6A9B0002E07B6A083B9B003B6109
:10203C007B691A680F213B6901FA03F3DB431A40F1
:10204C00396A3B6901FA03F31A437B691A603B68EE
:10205C005B6803F08053002B00F09080564B9B691B
:10206C00554A43F001039361534B9B6903F0010301
:10207C00BB60BB68514A7B6A9B08023352F8233021
:10208C00FB607B6A03F003039B000F2202FA03F34D
:10209C00DB43FA681340FB607B68494A93420DD0DE
:1020AC007B68484A934207D07B68474A934201D1E8
:1020BC00022304E0032302E0012300E000237A6AF8
:1020CC0002F0030292009340FA681343FB603B4911
:1020DC007B6A9B080233FA6841F823203B685B68F3
:1020EC0003F48033002B06D0384B1A683749BB6990
:1020FC0013430B6006E0354B1A68BB69DB4333496D
:10210C0013400B603B685B6803F40033002B06D074
:10211C002E4B5A682D49BB6913434B6006E02B4B81
:10212C005A68BB69DB43294913404B603B685B68C9
:10213C0003F48013002B06D0244B9A682349BB6907
:10214C0013438B6006E0214B9A68BB69DB431F4944
:10215C0013408B603B685B6803F40013002B06D0C4
:10216C001A4BDA681949BB691343CB6006E0174B6D
:10217C00DA68BB69DB4315491340CB607B6A0133DA
:10218C007B623B681A687B6A22FA03F3002B7FF4AC
:10219C00AFAE00BF00BF2C37BD4680BC704700BF40
:1021AC00000032100000311000002210000021103D
:1021BC00000012100000111000100240000001403D
:1021CC0000080140000C01400010014000040140D7
:1021DC0080B485B000AF78600B467B807B689A68D2
:1021EC007B881340002B02D00123FB7301E00023FA
:1021FC00FB73FB7B18461437BD4680BC704780B41C
:10220C0083B000AF78600B467B8013467B707B7885
:10221C00002B03D07A887B681A6103E07B881A0450
:10222C007B681A6100BF0C37BD4680BC704780B418
:10223C0085B000AF78600B467B807B68DB68FB6009
:10224C007A88FB6813401A04FB68D9437B880B40DF
:10225C001A437B681A6100BF1437BD4680BC7047B7
:10226C0080B586B000AF78607B68002B01D101236C
:10227C006CE27B681B6803F00103002B00F0878085
:10228C00924B5B6803F00C03042B0CD08F4B5B68F8
:10229C0003F00C03082B12D18C4B5B6803F48033D6
:1022AC00B3F5803F0BD1894B1B6803F40033002B33
:1022BC006CD07B685B68002B68D1012346E27B689D
:1022CC005B68B3F5803F06D1804B1B687F4A43F4B3
:1022DC00803313602EE07B685B68002B0CD17B4B4A
:1022EC001B687A4A23F480331360784B1B68774A57
:1022FC0023F4802313601DE07B685B68B3F5A02F8B
:10230C000CD1724B1B68714A43F4802313606F4BE2
:10231C001B686E4A43F4803313600BE06B4B1B68F5
:10232C006A4A23F480331360684B1B68674A23F4B2
:10233C00802313607B685B68002B13D0FFF7B6FC1F
:10234C00386108E0FFF7B2FC02463B69D31A642BF4
:10235C0001D90323FAE15D4B1B6803F40033002B16
:10236C00F0D014E0FFF7A2FC386108E0FFF79EFC08
:10237C0002463B69D31A642B01D90323E6E1534B84
:10238C001B6803F40033002BF0D100E000BF7B6826
:10239C001B6803F00203002B63D04C4B5B6803F00B
:1023AC000C03002B0BD0494B5B6803F00C03082B80
:1023BC001CD1464B5B6803F48033002B16D1434B86
:1023CC001B6803F00203002B05D07B681B69012BF3
:1023DC0001D00123BAE13D4B1B6823F0F8027B6866
:1023EC005B69DB00394913430B603AE07B681B697E
:1023FC00002B20D0364B01221A60FFF757FC3861B6
:10240C0008E0FFF753FC02463B69D31A022B01D9B3
:10241C0003239BE12D4B1B6803F00203002BF0D030
:10242C002A4B1B6823F0F8027B685B69DB002749A9
:10243C0013430B6015E0264B00221A60FFF736FCA5
:10244C00386108E0FFF732FC02463B69D31A022BD5
:10245C0001D903237AE11D4B1B6803F00203002B07
:10246C00F0D17B681B6803F00803002B3AD07B6823
:10247C009B69002B19D0174B01221A60FFF716FC31
:10248C00386108E0FFF712FC02463B69D31A022BB5
:10249C0001D903235AE10D4B5B6A03F00203002BB5
:1024AC00F0D0012000F0A6FA1CE00A4B00221A60C2
:1024BC00FFF7FCFB38610FE0FFF7F8FB02463B69C6
:1024CC00D31A022B08D9032340E100BF00100240AD
:1024DC0000004242800442429E4B5B6A03F00203BE
:1024EC00002BE9D17B681B6803F00403002B00F080
:1024FC00A6800023FB75974BDB6903F08053002B00
:10250C000DD1944BDB69934A43F08053D361914BCB
:10251C00DB6903F08053BB60BB680123FB758E4BFA
:10252C001B6803F48073002B18D18B4B1B688A4AF1
:10253C0043F480731360FFF7B9FB386108E0FFF7D1
:10254C00B5FB02463B69D31A642B01D90323FDE08A
:10255C00814B1B6803F48073002BF0D07B68DB6825
:10256C00012B06D17B4B1B6A7A4A43F001031362A1
:10257C002DE07B68DB68002B0CD1764B1B6A754A0F
:10258C0023F001031362734B1B6A724A23F004039A
:10259C0013621CE07B68DB68052B0CD16D4B1B6A4E
:1025AC006C4A43F0040313626A4B1B6A694A43F09A
:1025BC00010313620BE0674B1B6A664A23F00103AD
:1025CC001362644B1B6A634A23F0040313627B6837
:1025DC00DB68002B15D0FFF769FB38610AE0FFF7C9
:1025EC0065FB02463B69D31A41F28832934201D90A
:1025FC000323ABE0574B1B6A03F00203002BEED016
:10260C0014E0FFF753FB38610AE0FFF74FFB02467B
:10261C003B69D31A41F28832934201D9032395E0E6
:10262C004C4B1B6A03F00203002BEED1FB7D012BFC
:10263C0005D1484BDB69474A23F08053D3617B6853
:10264C00DB69002B00F08180424B5B6803F00C03CC
:10265C00082B61D07B68DB69022B46D13F4B0022F3
:10266C001A60FFF723FB386108E0FFF71FFB0246F7
:10267C003B69D31A022B01D9032367E0354B1B6846
:10268C0003F00073002BF0D17B681B6AB3F5803F1D
:10269C0008D1304B5B6823F400327B689B682D4972
:1026AC0013434B602B4B5B6823F474127B68196AE1
:1026BC007B685B6A0B43274913434B60274B012212
:1026CC001A60FFF7F3FA386108E0FFF7EFFA0246F9
:1026DC003B69D31A022B01D9032337E01D4B1B682E
:1026EC0003F00073002BF0D02FE01C4B00221A607B
:1026FC00FFF7DCFA386108E0FFF7D8FA02463B69CD
:10270C00D31A022B01D9032320E0124B1B6803F0D0
:10271C000073002BF0D118E07B68DB69012B01D131
:10272C00012313E00B4B5B68FB60FB6803F4803206
:10273C007B681B6A9A4206D1FB6803F470127B68B3
:10274C005B6A9A4201D0012300E000231846183737
:10275C00BD4680BD00100240007000406000424247
:10276C0080B584B000AF786039607B68002B01D1F4
:10277C000123D0E06A4B1B6803F007033A689A42C6
:10278C0010D9674B1B6823F0070265493B6813435C
:10279C000B60634B1B6803F007033A689A4201D045
:1027AC000123B8E07B681B6803F00203002B20D0E8
:1027BC007B681B6803F00403002B05D0594B5B6846
:1027CC00584A43F4E06353607B681B6803F00803CA
:1027DC00002B05D0534B5B68524A43F46053536053
:1027EC00504B5B6823F0F0027B689B684D491343A8
:1027FC004B607B681B6803F00103002B40D07B68A7
:10280C005B68012B07D1474B1B6803F40033002B8B
:10281C0015D101237FE07B685B68022B07D1414B0C
:10282C001B6803F00073002B09D1012373E03D4BAF
:10283C001B6803F00203002B01D101236BE0394B21
:10284C005B6823F003027B685B68364913434B607B
:10285C00FFF72CFAF8600AE0FFF728FA0246FB684B
:10286C00D31A41F28832934201D9032353E02D4B02
:10287C005B6803F00C027B685B689B009A42EBD1AF
:10288C00274B1B6803F007033A689A4210D2244B7B
:10289C001B6823F0070222493B6813430B60204B53
:1028AC001B6803F007033A689A4201D0012332E017
:1028BC007B681B6803F00403002B08D0194B5B6882
:1028CC0023F4E0627B68DB68164913434B607B683A
:1028DC001B6803F00803002B09D0124B5B6823F430
:1028EC0060527B681B69DB000E4913434B6000F0A0
:1028FC0021F802460B4B5B681B0903F00F030A49D6
:10290C00CB5C22FA03F3094A1360094B1B68184687
:10291C00FFF78AF9002318461037BD4680BD00BF6B
:10292C0000200240001002408432000840000020C9
:10293C004400002090B48AB000AF2A4B3C1D0FCB52
:10294C0084E80F0040F201233B800023FB6100234D
:10295C00BB6100237B6200237B6100233B62224B23
:10296C005B68FB61FB6903F00C03042B02D0082BA2
:10297C0003D02DE01D4B3B622DE0FB699B0C03F05B
:10298C000F0307F12802134413F8243C7B61FB6905
:10299C0003F48033002B13D0134B5B685B0C03F0F8
:1029AC00010307F12802134413F8283CBB617B692F
:1029BC000E4A02FB03F2BB69B2FBF3F37B6204E049
:1029CC007B690B4A02FB03F37B627B6A3B6202E08E
:1029DC00064B3B6200BF3B6A18462837BD4690BC8D
:1029EC00704700BF743200080010024000127A00D9
:1029FC0000093D0080B485B000AF78600A4B1B68BD
:102A0C000A4AA2FB03235B0A7A6802FB03F3FB600E
:102A1C0000BFFB685A1EFA60002BF9D100BF00BF43
:102A2C001437BD4680BC704740000020D34D621067
:102A3C0080B582B000AF78607B68002B01D1012398
:102A4C0041E07B6893F83D30DBB2002B06D17B680C
:102A5C00002283F83C207868FEF7E6FE7B680222B1
:102A6C0083F83D207B681A687B680433194610464E
:102A7C0000F06AFA7B68012283F846207B68012209
:102A8C0083F83E207B68012283F83F207B6801227B
:102A9C0083F840207B68012283F841207B68012267
:102AAC0083F842207B68012283F843207B68012253
:102ABC0083F844207B68012283F845207B6801223F
:102ACC0083F83D20002318460837BD4680BD000022
:102ADC0080B485B000AF78607B6893F83D30DBB292
:102AEC00012B01D0012335E07B68022283F83D20C5
:102AFC007B681B68DA687B681B6842F00102DA604D
:102B0C007B681B68164A934209D07B681B68B3F13B
:102B1C00804F04D07B681B68124A934211D17B68AA
:102B2C001B689B6803F00703FB60FB68062B10D047
:102B3C007B681B681A687B681B6842F001021A608C
:102B4C0007E07B681B681A687B681B6842F001020F
:102B5C001A60002318461437BD4680BC704700BF6E
:102B6C00002C01400004004080B582B000AF7860BA
:102B7C007B681B681B6903F00203022B22D17B6864
:102B8C001B68DB6803F00203022B1BD17B681B68FC
:102B9C006FF002021A617B6801221A777B681B684E
:102BAC009B6903F00303002B03D0786800F0B1F9A4
:102BBC0005E0786800F0A4F9786800F0B3F97B6858
:102BCC0000221A777B681B681B6903F00403042B33
:102BDC0022D17B681B68DB6803F00403042B1BD138
:102BEC007B681B686FF004021A617B6802221A77FB
:102BFC007B681B689B6903F44073002B03D07868D7
:102C0C0000F087F905E0786800F07AF9786800F050
:102C1C0089F97B6800221A777B681B681B6903F0B3
:102C2C000803082B22D17B681B68DB6803F00803C0
:102C3C00082B1BD17B681B686FF008021A617B683C
:102C4C0004221A777B681B68DB6903F00303002BF3
:102C5C0003D0786800F05DF905E0786800F050F971
:102C6C00786800F05FF97B6800221A777B681B6834
:102C7C001B6903F01003102B22D17B681B68DB68E7
:102C8C0003F01003102B1BD17B681B686FF0100234
:102C9C001A617B6808221A777B681B68DB6903F46E
:102CAC004073002B03D0786800F033F905E07868A6
:102CBC0000F026F9786800F035F97B6800221A7765
:102CCC007B681B681B6903F00103012B0ED17B6829
:102CDC001B68DB6803F00103012B07D17B681B68C1
:102CEC006FF001021A617868FEF75AFD7B681B6869
:102CFC001B6903F08003802B0ED17B681B68DB689B
:102D0C0003F08003802B07D17B681B686FF0800277
:102D1C001A61786800F067FA7B681B681B6903F01E
:102D2C004003402B0ED17B681B68DB6803F040032B
:102D3C00402B07D17B681B686FF040021A617868E2
:102D4C0000F0F9F87B681B681B6903F02003202B4B
:102D5C000ED17B681B68DB6803F02003202B07D1A6
:102D6C007B681B686FF020021A61786800F032FAF9
:102D7C0000BF0837BD4680BD80B584B000AF786019
:102D8C0039607B6893F83C30012B01D10223B3E00E
:102D9C007B68012283F83C207B68022283F83D206B
:102DAC007B681B689B68FB60FB6823F07703FB6008
:102DBC00FB6823F47F43FB607B681B68FA689A60AE
:102DCC003B681B68B3F5005F3ED0B3F5005F00F2C3
:102DDC008780B3F5805F00F08580B3F5805F7FD886
:102DEC00702B1AD0702B7BD8602B50D0602B77D8DF
:102DFC00502B3CD0502B73D8402B58D0402B6FD835
:102E0C00302B64D0302B6BD8202B60D0202B67D884
:102E1C00002B5CD0102B5AD062E07B6818683B68A2
:102E2C0099683B685A683B68DB6800F05CF97B6822
:102E3C001B689B68FB60FB6843F07703FB607B6857
:102E4C001B68FA689A604EE07B6818683B68996862
:102E5C003B685A683B68DB6800F045F97B681B6887
:102E6C009A687B681B6842F480429A603BE07B68FE
:102E7C0018683B6859683B68DB681A4600F0BCF878
:102E8C007B681B685021184600F013F92BE07B6817
:102E9C0018683B6859683B68DB681A4600F0DAF83A
:102EAC007B681B686021184600F003F91BE07B6807
:102EBC0018683B6859683B68DB681A4600F09CF858
:102ECC007B681B684021184600F0F3F80BE07B6828
:102EDC001A683B681B681946104600F0EAF802E0D5
:102EEC0000BF00E000BF7B68012283F83D207B68B7
:102EFC00002283F83C20002318461037BD4680BDC5
:102F0C0080B483B000AF786000BF0C37BD4680BC86
:102F1C00704780B483B000AF786000BF0C37BD46FB
:102F2C0080BC704780B483B000AF786000BF0C37B2
:102F3C00BD4680BC704780B483B000AF786000BFE2
:102F4C000C37BD4680BC704780B485B000AF78604C
:102F5C0039607B681B68FB607B68254A934207D00D
:102F6C007B68B3F1804F03D07B68224A934208D12F
:102F7C00FB6823F07003FB603B685B68FA681343E3
:102F8C00FB607B681A4A934207D07B68B3F1804F91
:102F9C0003D07B68174A934208D1FB6823F4407333
:102FAC00FB603B68DB68FA681343FB60FB6823F04B
:102FBC0080023B685B691343FB607B68FA681A60AC
:102FCC003B689A687B68DA623B681A687B689A622D
:102FDC007B68074A934203D13B681A697B681A6382
:102FEC007B6801225A6100BF1437BD4680BC704714
:102FFC00002C01400004004080B487B000AFF860A2
:10300C00B9607A60FB681B6A7B61FB681B6A23F002
:10301C000102FB681A62FB689B693B613B6923F008
:10302C00F0033B617B681B013A6913433B617B698D
:10303C0023F00A037B617A69BB6813437B61FB68ED
:10304C003A699A61FB687A691A6200BF1C37BD46FF
:10305C0080BC704780B487B000AFF860B9607A600C
:10306C00FB681B6A23F01002FB681A62FB689B6901
:10307C007B61FB681B6A3B617B6923F470437B615A
:10308C007B681B037A6913437B613B6923F0A003C4
:10309C003B61BB681B013A6913433B61FB687A696E
:1030AC009A61FB683A691A6200BF1C37BD4680BC46
:1030BC00704780B485B000AF786039607B689B68DE
:1030CC00FB60FB6823F07003FB603A68FB681343FA
:1030DC0043F00703FB607B68FA689A6000BF143703
:1030EC00BD4680BC704780B487B000AFF860B96053
:1030FC007A603B60FB689B687B617B6923F47F4350
:10310C007B613B681A027B681A43BB6813437A697C
:10311C0013437B61FB687A699A6000BF1C37BD461C
:10312C0080BC704780B485B000AF786039607B6834
:10313C0093F83C30012B01D1022341E07B68012242
:10314C0083F83C207B68022283F83D207B681B6857
:10315C005B68FB607B681B689B68BB60FB6823F04B
:10316C007003FB603B681B68FA681343FB607B6869
:10317C001B68FA685A607B681B68144A934209D032
:10318C007B681B68B3F1804F04D07B681B68104AC6
:10319C0093420CD1BB6823F08003BB603B685B6837
:1031AC00BA681343BB607B681B68BA689A607B681B
:1031BC00012283F83D207B68002283F83C20002309
:1031CC0018461437BD4680BC704700BF002C014028
:1031DC000004004080B483B000AF786000BF0C37AF
:1031EC00BD4680BC704780B483B000AF786000BF30
:1031FC000C37BD4680BC704770B500260C4D0D4C8D
:10320C00641BA410A64209D100F022F800260A4D36
:10321C000A4C641BA410A64205D170BD55F8043BA2
:10322C0098470136EEE755F8043B98470136F2E72C
:10323C009432000894320008943200089832000846
:10324C0003460244934200D1704703F8011BF9E78F
:10325C00F8B500BFF8BC08BC9E467047F8B500BF77
:08326C00F8BC08BC9E46704747
:1032740002030405060708090A0B0C0D0E0F1010B3
:103284000000000000000000010203040607080912
:0432940031010008FC
:043298000D0100081C
:10329C00010000000100000001000000010000001E
:1032AC0012000000F4010000C80000002C01000016
:1032BC00F4010000C80000002C0100000100000017
:1032CC0001000000F401000000200040008000001C
:0C32DC000024F4001000000001000000BD
:0400000508001BBD17
:00000001FF
